{
  "_format": "hh-sol-artifact-1",
  "contractName": "pokemon_factory",
  "sourceName": "contracts/pokemon_factory.sol",
  "abi": [
    {
      "inputs": [
        {
          "internalType": "string",
          "name": "_name",
          "type": "string"
        },
        {
          "internalType": "uint256",
          "name": "_id",
          "type": "uint256"
        }
      ],
      "name": "create_pokemon",
      "outputs": [],
      "stateMutability": "nonpayable",
      "type": "function"
    },
    {
      "inputs": [],
      "name": "get_all_pokemons",
      "outputs": [
        {
          "components": [
            {
              "internalType": "uint256",
              "name": "id",
              "type": "uint256"
            },
            {
              "internalType": "string",
              "name": "name",
              "type": "string"
            }
          ],
          "internalType": "struct pokemon_factory.Pokemon[]",
          "name": "",
          "type": "tuple[]"
        }
      ],
      "stateMutability": "view",
      "type": "function"
    },
    {
      "inputs": [],
      "name": "get_result",
      "outputs": [
        {
          "internalType": "uint256",
          "name": "product",
          "type": "uint256"
        },
        {
          "internalType": "uint256",
          "name": "sum",
          "type": "uint256"
        }
      ],
      "stateMutability": "pure",
      "type": "function"
    },
    {
      "inputs": [
        {
          "internalType": "uint256",
          "name": "",
          "type": "uint256"
        }
      ],
      "name": "pokemon_to_owner",
      "outputs": [
        {
          "internalType": "address",
          "name": "",
          "type": "address"
        }
      ],
      "stateMutability": "view",
      "type": "function"
    }
  ],
  "bytecode": "0x608060405234801561001057600080fd5b50610ba3806100206000396000f3fe608060405234801561001057600080fd5b506004361061004c5760003560e01c806328660a7c146100515780634d5fa6f81461006d578063676f0ed01461008c578063e91e0028146100bc575b600080fd5b61006b600480360381019061006691906104d6565b6100da565b005b6100756101e7565b604051610083929190610541565b60405180910390f35b6100a660048036038101906100a1919061056a565b610218565b6040516100b391906105d8565b60405180910390f35b6100c461024b565b6040516100d19190610780565b60405180910390f35b6000604051806040016040528083815260200184815250908060018154018082558091505060019003906000526020600020906002020160009091909190915060008201518160000155602082015181600101908161013991906109ae565b505050336001600083815260200190815260200160002060006101000a81548173ffffffffffffffffffffffffffffffffffffffff021916908373ffffffffffffffffffffffffffffffffffffffff160217905550600260003373ffffffffffffffffffffffffffffffffffffffff1673ffffffffffffffffffffffffffffffffffffffff16815260200190815260200160002060008154809291906101de90610aaf565b91905055505050565b60008060006001905060006002905080826102029190610af7565b935080826102109190610b39565b925050509091565b60016020528060005260406000206000915054906101000a900473ffffffffffffffffffffffffffffffffffffffff1681565b60606000805480602002602001604051908101604052809291908181526020016000905b8282101561033d5783829060005260206000209060020201604051806040016040529081600082015481526020016001820180546102ac906107d1565b80601f01602080910402602001604051908101604052809291908181526020018280546102d8906107d1565b80156103255780601f106102fa57610100808354040283529160200191610325565b820191906000526020600020905b81548152906001019060200180831161030857829003601f168201915b5050505050815250508152602001906001019061026f565b50505050905090565b6000604051905090565b600080fd5b600080fd5b600080fd5b600080fd5b6000601f19601f8301169050919050565b7f4e487b7100000000000000000000000000000000000000000000000000000000600052604160045260246000fd5b6103ad82610364565b810181811067ffffffffffffffff821117156103cc576103cb610375565b5b80604052505050565b60006103df610346565b90506103eb82826103a4565b919050565b600067ffffffffffffffff82111561040b5761040a610375565b5b61041482610364565b9050602081019050919050565b82818337600083830152505050565b600061044361043e846103f0565b6103d5565b90508281526020810184848401111561045f5761045e61035f565b5b61046a848285610421565b509392505050565b600082601f8301126104875761048661035a565b5b8135610497848260208601610430565b91505092915050565b6000819050919050565b6104b3816104a0565b81146104be57600080fd5b50565b6000813590506104d0816104aa565b92915050565b600080604083850312156104ed576104ec610350565b5b600083013567ffffffffffffffff81111561050b5761050a610355565b5b61051785828601610472565b9250506020610528858286016104c1565b9150509250929050565b61053b816104a0565b82525050565b60006040820190506105566000830185610532565b6105636020830184610532565b9392505050565b6000602082840312156105805761057f610350565b5b600061058e848285016104c1565b91505092915050565b600073ffffffffffffffffffffffffffffffffffffffff82169050919050565b60006105c282610597565b9050919050565b6105d2816105b7565b82525050565b60006020820190506105ed60008301846105c9565b92915050565b600081519050919050565b600082825260208201905092915050565b6000819050602082019050919050565b610628816104a0565b82525050565b600081519050919050565b600082825260208201905092915050565b60005b8381101561066857808201518184015260208101905061064d565b60008484015250505050565b600061067f8261062e565b6106898185610639565b935061069981856020860161064a565b6106a281610364565b840191505092915050565b60006040830160008301516106c5600086018261061f565b50602083015184820360208601526106dd8282610674565b9150508091505092915050565b60006106f683836106ad565b905092915050565b6000602082019050919050565b6000610716826105f3565b61072081856105fe565b9350836020820285016107328561060f565b8060005b8581101561076e578484038952815161074f85826106ea565b945061075a836106fe565b925060208a01995050600181019050610736565b50829750879550505050505092915050565b6000602082019050818103600083015261079a818461070b565b905092915050565b7f4e487b7100000000000000000000000000000000000000000000000000000000600052602260045260246000fd5b600060028204905060018216806107e957607f821691505b6020821081036107fc576107fb6107a2565b5b50919050565b60008190508160005260206000209050919050565b60006020601f8301049050919050565b600082821b905092915050565b6000600883026108647fffffffffffffffffffffffffffffffffffffffffffffffffffffffffffffffff82610827565b61086e8683610827565b95508019841693508086168417925050509392505050565b6000819050919050565b60006108ab6108a66108a1846104a0565b610886565b6104a0565b9050919050565b6000819050919050565b6108c583610890565b6108d96108d1826108b2565b848454610834565b825550505050565b600090565b6108ee6108e1565b6108f98184846108bc565b505050565b5b8181101561091d576109126000826108e6565b6001810190506108ff565b5050565b601f8211156109625761093381610802565b61093c84610817565b8101602085101561094b578190505b61095f61095785610817565b8301826108fe565b50505b505050565b600082821c905092915050565b600061098560001984600802610967565b1980831691505092915050565b600061099e8383610974565b9150826002028217905092915050565b6109b78261062e565b67ffffffffffffffff8111156109d0576109cf610375565b5b6109da82546107d1565b6109e5828285610921565b600060209050601f831160018114610a185760008415610a06578287015190505b610a108582610992565b865550610a78565b601f198416610a2686610802565b60005b82811015610a4e57848901518255600182019150602085019450602081019050610a29565b86831015610a6b5784890151610a67601f891682610974565b8355505b6001600288020188555050505b505050505050565b7f4e487b7100000000000000000000000000000000000000000000000000000000600052601160045260246000fd5b6000610aba826104a0565b91507fffffffffffffffffffffffffffffffffffffffffffffffffffffffffffffffff8203610aec57610aeb610a80565b5b600182019050919050565b6000610b02826104a0565b9150610b0d836104a0565b9250828202610b1b816104a0565b91508282048414831517610b3257610b31610a80565b5b5092915050565b6000610b44826104a0565b9150610b4f836104a0565b9250828201905080821115610b6757610b66610a80565b5b9291505056fea2646970667358221220290f75899cb71073b1c9fca5b360bf1eb0eae64438e8fe0263190d6f485df63864736f6c63430008120033",
  "linkReferences": {},
  "deployedLinkReferences": {}
}