{
  "_format": "hh-sol-artifact-1",
  "contractName": "Counter",
  "sourceName": "contracts/counter.sol",
  "abi": [
    {
      "inputs": [
        {
          "internalType": "uint256",
          "name": "_counter",
          "type": "uint256"
        }
      ],
      "stateMutability": "nonpayable",
      "type": "constructor"
    },
    {
      "inputs": [],
      "name": "get_counter",
      "outputs": [
        {
          "internalType": "uint256",
          "name": "",
          "type": "uint256"
        }
      ],
      "stateMutability": "view",
      "type": "function"
    },
    {
      "inputs": [],
      "name": "increment_counter",
      "outputs": [],
      "stateMutability": "nonpayable",
      "type": "function"
    },
    {
      "inputs": [
        {
          "internalType": "uint256",
          "name": "number",
          "type": "uint256"
        }
      ],
      "name": "setup_counter",
      "outputs": [],
      "stateMutability": "nonpayable",
      "type": "function"
    }
  ],
  "bytecode": "0x608060405234801561001057600080fd5b506040516102ab3803806102ab8339818101604052810190610032919061007a565b80600081905550506100a7565b600080fd5b6000819050919050565b61005781610044565b811461006257600080fd5b50565b6000815190506100748161004e565b92915050565b6000602082840312156100905761008f61003f565b5b600061009e84828501610065565b91505092915050565b6101f5806100b66000396000f3fe608060405234801561001057600080fd5b50600436106100415760003560e01c806382b15f3714610046578063ea66cf6d14610050578063f66203b11461006e575b600080fd5b61004e61008a565b005b6100586100a3565b60405161006591906100cf565b60405180910390f35b6100886004803603810190610083919061011b565b6100ac565b005b60008081548092919061009c90610177565b9190505550565b60008054905090565b8060008190555050565b6000819050919050565b6100c9816100b6565b82525050565b60006020820190506100e460008301846100c0565b92915050565b600080fd5b6100f8816100b6565b811461010357600080fd5b50565b600081359050610115816100ef565b92915050565b600060208284031215610131576101306100ea565b5b600061013f84828501610106565b91505092915050565b7f4e487b7100000000000000000000000000000000000000000000000000000000600052601160045260246000fd5b6000610182826100b6565b91507fffffffffffffffffffffffffffffffffffffffffffffffffffffffffffffffff82036101b4576101b3610148565b5b60018201905091905056fea26469706673582212209936d0cf22dec71a9fef3acab893e34ddb315a4cf0c0fcf4c4e86d077cec3d7264736f6c63430008120033",
  "linkReferences": {},
  "deployedLinkReferences": {}
}