{
  "_format": "hh-sol-artifact-1",
  "contractName": "Counter",
  "sourceName": "contracts/counter.sol",
  "abi": [
    {
      "inputs": [
        {
          "internalType": "uint256",
          "name": "_counter",
          "type": "uint256"
        }
      ],
      "stateMutability": "nonpayable",
      "type": "constructor"
    },
    {
      "inputs": [],
      "name": "get_counter",
      "outputs": [
        {
          "internalType": "uint256",
          "name": "",
          "type": "uint256"
        }
      ],
      "stateMutability": "view",
      "type": "function"
    },
    {
      "inputs": [],
      "name": "increment_counter",
      "outputs": [],
      "stateMutability": "nonpayable",
      "type": "function"
    }
  ],
  "bytecode": "0x608060405234801561001057600080fd5b5060405161021c38038061021c8339818101604052810190610032919061007a565b80600081905550506100a7565b600080fd5b6000819050919050565b61005781610044565b811461006257600080fd5b50565b6000815190506100748161004e565b92915050565b6000602082840312156100905761008f61003f565b5b600061009e84828501610065565b91505092915050565b610166806100b66000396000f3fe608060405234801561001057600080fd5b50600436106100365760003560e01c806382b15f371461003b578063ea66cf6d14610045575b600080fd5b610043610063565b005b61004d61007c565b60405161005a919061009e565b60405180910390f35b600080815480929190610075906100e8565b9190505550565b60008054905090565b6000819050919050565b61009881610085565b82525050565b60006020820190506100b3600083018461008f565b92915050565b7f4e487b7100000000000000000000000000000000000000000000000000000000600052601160045260246000fd5b60006100f382610085565b91507fffffffffffffffffffffffffffffffffffffffffffffffffffffffffffffffff8203610125576101246100b9565b5b60018201905091905056fea2646970667358221220fd6b4949335c31eb037785ddd8257dc81f4d630735c4b127a28d9df75f00f18664736f6c63430008120033",
  "linkReferences": {},
  "deployedLinkReferences": {}
}